:0400000011EF00F00C
:08000800B8A01000A9EF00F000
:10001800AFA00000AF903AEF00F044ED00F04AEDD9
:1000280000F066ED00F070ED00F01BEF00F0C37615
:100038008DED00F0C3768DED00F01BEF00F0C38668
:100048000401000EFB6F010EFA6F03449EEC00F0F2
:10005800C06E81ED00F0042E37EF00F0052E3EEF64
:1000680000F0A9EF00F0032A23EF00F0050E056E5B
:10007800000E036E0A0E046E000E036E23EF00F0EE
:100088000001600EAD6F020EB16F12000401D36B58
:10009800C387C385286BCB97CB950401CE6B006BC8
:1000A800C68701870401CF6B086BC78909890401DA
:1000B800D36B286BCB8509850401D06BC06B106BA3
:1000C800C86B12000201030E3E6F02010C0E3F6F57
:1000D80002012A0E406F1200D68A030163916881DB
:1000E8006C81D690AF909F80D692B490A480D6941D
:1000F800B890A880D68ED68C1200FA0E016EF90E32
:10010800006E0000002E85EF00F0012E83EF00F056
:100118001200020E026EFA0E016EF90E006E000059
:10012800002E93EF00F0012E91EF00F0022E8FEFDA
:1001380000F01200F926810C420C240C180C000C5B
:0A014800180C240C420C810C000C72
:020000040030CA
:10000000EC0D27C79FFFFFFFFFFFFFFFFFFFFFFF75
:10001000FFFFFFFFFFFFFFFFFFFFFFFFFFFFFFFFF0
:03002000FFFFFFE0
:00000001FF
